:020000040800F2
:10000000C0330020D5020008D92600083D20000892
:10001000D5260008E91C00089B35000800000000F8
:10002000000000000000000000000000F5280008AB
:10003000591D000800000000692700080D2A00086B
:10004000EF020008EF020008EF020008EF020008CC
:10005000EF020008EF020008EF020008EF020008BC
:10006000EF020008EF020008EF020008EF020008AC
:10007000EF020008EF020008EF020008EF0200089C
:10008000EF020008EF020008EF020008EF0200088C
:10009000EF020008EF020008EF020008EF0200087C
:1000A000EF020008EF020008EF020008EF0200086C
:1000B000792A00087D2D0008E92D0008EF020008CC
:1000C000EF020008EF020008EF020008EF0200084C
:1000D000EF020008BD31000849320008C5320008AF
:1000E000EF020008EF020008EF020008EF0200082C
:1000F000EF020008EF020008EF020008EF0200081C
:10010000EF020008EF020008EF020008EF0200080B
:10011000EF020008EF020008EF020008EF020008FB
:10012000EF020008EF020008EF020008EF020008EB
:10013000EF020008EF020008EF020008EF020008DB
:10014000EF020008EF020008EF020008EF020008CB
:10015000EF020008EF020008EF020008EF020008BB
:10016000EF020008EF020008EF020008EF020008AB
:10017000EF020008EF020008EF020008EF0200089B
:10018000EF020008EF02000800F002F800F092F819
:100190000AA090E8000C82448344AAF10107DA45E2
:1001A00001D100F087F8AFF2090EBAE80F0013F0A2
:1001B000010F18BFFB1A43F001031847106300003A
:1001C00030630000103A24BF78C878C1FAD85207CB
:1001D00024BF30C830C144BF04680C6070470000C1
:1001E0000023002400250026103A28BF78C1FBD840
:1001F000520728BF30C148BF0B6070476E2900F01E
:100200008483702900F0EF84662906F00480652954
:1002100006F00180672905F0FE876129AFF30080B1
:1002200003681B0A28BF41F08001692900F0DE80C5
:10023000642900F0DB80752900F0D8806F2900F078
:100240007C84782900F0BB84E92900F01784E42934
:1002500000F01484F52900F01184EF2900F079846E
:10026000F82900F0BA840368DB0928BF41F0800157
:10027000632900F08683732900F08B83E32900F063
:100280001B87F32900F02087002070471FB505F079
:10029000BDFF00F06FFF04000020002105F0A0FF6B
:1002A000401C60600020002105F084FFE0601FBD5D
:1002B00010B510BD00F030FF1146FFF7E7FF03F067
:1002C000C7FE01F00DF803B4FFF7F2FF03BC03F023
:1002D0002EFA00000948804709480047FEE7FEE77C
:1002E000FEE7FEE7FEE7FEE7FEE7FEE7FEE7FEE7E6
:1002F00004480549054A064B70470000112A0008CA
:1003000089010008C02D0020C0330020C02F00202C
:10031000C02F0020704700000FB4044910B503AA95
:10032000029800F03BFB10BC5DF814FB600000205D
:100330001CB50C46064B7B4469460090204600F0F5
:10034000FEFA04460020694600F00CFB20461CBD66
:100350002B0600000FB4044910B503AA029800F060
:100360001DFB10BC5DF814FB600000200FB41CB531
:10037000084B06AA7B4469460090059800F0DFFA16
:1003800004460020694600F0EDFA20461CBC5DF8EA
:1003900014FB0000ED05000070B50C460546012A6F
:1003A00005D02878800600D5EA69002302E0012301
:1003B00005E05B1C934202D2E05C0028F9D1A869F9
:1003C000E618C01AA861286A18442862284600F076
:1003D0000AFA04E0D5E9012114F8010B9047B44270
:1003E000F8D3284600F015FA70BD00002DE9F04161
:1003F0000646002410687529314616A510D000F075
:1004000019FA002802DA404213A507E031688A078A
:1004100001D512A502E0490704D511A5012401E088
:1004200000F011FA00210A2206F1240709E0B0FBCE
:10043000F2FCB0FBF2F302FB1C003030785418469B
:10044000491C0028F3D123462A463046BDE8F04136
:1004500000F002BA000000002D0000002B00000098
:10046000200000002DE9F05F894604464FF0000AA5
:10047000DFF874B1FB44C0F820A02046E16888474B
:10048000002874D0252806D0D4E901219047206A9D
:10049000401C2062F1E700265F462046E16888475D
:1004A0002028054607DB312D05D2781910F8200CDD
:1004B00008B10643F1E7B00701D526F00406C4F8F9
:1004C0001CA00027C4F818A02A2D09D0284603F044
:1004D00027F938B304EB8708303DC8F8185019E005
:1004E00059F8041B204604EB87029161E1688847B4
:1004F000012F054618D1E069002820DA26F02006F1
:100500001DE0D8F8180000EB800005EB4000303803
:10051000C8F818002046E1688847054603F000F94E
:100520000028EED1012F0AD02E2D08D12046E168F7
:1005300088477F1C0546022F46F02006C4DBA069D1
:10054000002803DA404246F00106A061F00701D01E
:1005500026F010066C2D0BD0682D09D04C2D39D00B
:100560006A2D35D0742D35D07A2D33D016E038E091
:10057000E1682F4620468847B842054609D16C2FCE
:1005800026D04FF48060E168064320468847054640
:1005900004E06C2F1AD04FF4807006430DB3A5F120
:1005A0004100192802D8203546F400664A462946FB
:1005B000204626604E46FFF721FE80B101280BD071
:1005C000F61D26F0070000F1080956E74020E4E791
:1005D0008020D8E70020D6E706F104094DE7284639
:1005E00052E7206ABDE8F09FE25D000030B50546A5
:1005F0000B462A4613F8014B12F8010B08B1A04232
:10060000F8D01CB1002802D06D1CF1E7284630BD9F
:1006100010B5431C02E010F8011B71B18107FAD13B
:100620004FF0013202C88C1A8C4314EAC211F9D07F
:10063000C01A0A0603D0C01E10BDC01A10BD0A049D
:1006400001D0801E10BD0902FCD0401E10BD032A3F
:1006500040F2308010F0030C00F0158011F8013BDF
:10066000BCF1020F624498BF11F801CB00F8013BC6
:1006700038BF11F8013BA2F1040298BF00F801CB8A
:1006800038BF00F8013B11F0030300F02580083A61
:10069000C0F0088051F8043B083A51F804CBA0E8B8
:1006A0000810F5E7121D5CBF51F8043B40F8043B0D
:1006B000AFF30080D20724BF11F8013B11F801CB42
:1006C00048BF11F8012B24BF00F8013B00F801CB13
:1006D00048BF00F8012B704710B5203AC0F00B80DE
:1006E000B1E81850203AA0E81850B1E81850A0E836
:1006F0001850BFF4F5AF5FEA027C24BFB1E8185090
:10070000A0E8185044BF18C918C0BDE810405FEAFF
:10071000827C24BF51F8043B40F8043B08BF70477B
:10072000D20728BF31F8023B48BF11F8012B28BF80
:1007300020F8023B48BF00F8012B704702F0FF038E
:1007400043EA032242EA024200F002B84FF00002FC
:100750000429C0F0128010F0030C00F01B80CCF1D3
:10076000040CBCF1020F18BF00F8012BA8BF20F841
:10077000022BA1EB0C0100F00DB85FEAC17C24BF95
:1007800000F8012B00F8012B48BF00F8012B70473F
:100790004FF0000200B5134694469646203922BF1A
:1007A000A0E80C50A0E80C50B1F12001BFF4F7AF65
:1007B000090728BFA0E80C5048BF0CC05DF804EB47
:1007C000890028BF40F8042B08BF704748BF20F8B5
:1007D000022B11F0804F18BF00F8012B70477047B3
:1007E00070477047704770B5044685690068C10658
:1007F00001D5302600E02026C00707D070BDD4E91F
:10080000012130469047206A401C20626D1EF6D5BB
:1008100070BD70B5044685690078C00707D170BD0A
:10082000D4E9012120209047206A401C20626D1EDF
:10083000F6D570BD09684A0501D540B27047C905B3
:10084000FCD500B2704709684A0501D5C0B27047AF
:10085000C905FCD580B270472DE9F0470D46994691
:100860009246044600F124080168880604D5E06930
:1008700021F01001216000E00120A84201DD471BAA
:1008800000E00027A1697A1902EB0900081AA061AB
:100890002078C00602D42046FFF7A5FF002608E016
:1008A000D4E901211AF806009047206A401C761C02
:1008B00020624E45F4DB2078C0060AD52046FFF7BB
:1008C00092FF06E0D4E9012130209047206A401CC5
:1008D0002062381EA7F10107F4DC07E0D4E901210A
:1008E00018F805009047206A401C2062281EA5F1D8
:1008F0000105F3DC2046FFF78CFF2078000602D5C7
:100900000220BDE8F0870120FBE711680268006A59
:10091000530501D508700AE0D30501D5088006E02B
:10092000130603D5C217C1E9000200E008600120E8
:100930007047000001694A1C02610878704700B5E1
:100940008FB0CDE901310021059105497944CDE908
:10095000031011466846FFF785FD0FB000BD00008B
:10096000E5FFFFFF0A6802F8010B0A60704710B547
:10097000436913B1AFF3008001E0FFF70DFD0120E3
:1009800010BD127800F124010A7000224A70012281
:10099000EDE711684FF0FF32E9E70000074B70B553
:1009A0000D467B44FFF7CBFF0446284600F090FB42
:1009B00010B14FF0FF3070BD204670BD8F36000083
:1009C0002DE9FF5F15468A460446DFF8AC80F844FF
:1009D0000027D8E900103E46CDE9001010E03AF8B3
:1009E00016106A4602A800F077FB411C07D0217858
:1009F000890603D5E269391891420DD80744761C5F
:100A00002078800602D5E069B84205DDAE42E6DB1B
:100A10003AF816000028E2D1A069C01BA061204668
:100A2000FFF7E1FED8E90010CDE90010002017E043
:100A30003AF818106A4602A800F04EFBB0F1FF3FEA
:100A400081460BD000250DF1080B05E0D4E901210A
:100A50001BF8050090476D1C4D45F7D308F10100C8
:100A6000B0428046E4DB206A384420622046FFF72B
:100A7000D0FEBDE8FF9F00009A5800002DE9F0412C
:100A80008046D21D22F007020025D2E90002F52996
:100A900015A614D0011E72F1000106DA0023D0EB76
:100AA000030063EB020211A608E0D8F800108B07E0
:100AB00001D50FA602E0490701D50EA60125114672
:100AC000002408F1240704E000F098F830323A5589
:100AD000641C50EA0102F7D12B46324621464046BB
:100AE000BDE8F041FFF7B8BE000000002D00000097
:100AF0002B0000002000000030B4002100F124048D
:100B000008E002F00705D208303542EA4372DB08FC
:100B10006554491C52EA0305F3D10468002310A26E
:100B2000250707D5A40600D421B1C46901230DA26D
:100B3000641EC46130BCFFF78FBE10B50446214669
:100B40001068FFF780FE02462046BDE810400023F3
:100B5000D2E7D21D22F00701D1E90023CCE7000043
:100B60000000000030000000F0B40D4601880905C7
:100B700002D5214C7C4402E01F4C7C440E34002101
:100B800000F1240608E002F00F071209E75D42EACF
:100B900003721B097754491C52EA0307F3D1027808
:100BA0000023120704D5702D06D009B10223113499
:100BB0002246F0BCFFF750BE01231034F8E770B5B1
:100BC00004460D4621461068FFF73DFE02462946C1
:100BD0002046BDE870400023C6E7D21D22F007037F
:100BE000D3E90023C0E70368126843F020030360E1
:100BF0000823C3610023B7E7FC56000030B5B0F10D
:100C00000A024FEA900E71F100034EEA817EB0EBCA
:100C10000E0061EB91014FEA101E4EEA017E10EBCF
:100C20000E0041EB11114FEA102E4EEA016E10EB4F
:100C30000E0041EB11214FEA104E4EEA014E10EB2F
:100C40000E0041EB1141401841F100014FEAD00084
:100C500040EA41704FEAD10110EB80054FEA810470
:100C600044EA907444EB01046D1944EB0404521BF4
:100C7000A3414FF0000348BF0A3200D530BD401CED
:100C800041F1000130BD70472DE9FF4F0C461E4673
:100C90004FF0FF378BB0D2E90001DDF860800A9099
:100CA0008A46C1F30A5505B93D46002108464FF072
:100CB0000000BAF1000F00F4400005DA00EB8000FC
:100CC0004FF4400101EA50004FEA9059B9F1010F89
:100CD00000DDB9460A9850EA4A000ED044F610509A
:100CE000A5F2FF3545432F14B8F1000F1ED0754211
:100CF000291E1EDDC9F100021CE0B8F1010F4FF002
:100D0000000001D0302103E0F24305E02154401CF3
:100D1000B042FBDB30460022002121540B99C1F880
:100D20000880C1E900200FB0BDE8F08FBD1B6D1C2D
:100D3000DEE74A4600DA694206A800F05FFA06AB31
:100D400093E8070003AB83E8070050460A9900F0D8
:100D500015FB8DE80700A0F500501F3800900398A0
:100D6000002D0ADD42F21F014A460844002303A970
:100D70000390684600F07EFD09E0A0F500504A4669
:100D80001F38002303A90390684600F088FD8DE812
:100D900007000004000C03D04FF0FF30410800E0D2
:100DA0001046B8F1000F03D00022009215461EE055
:100DB000751E05D4FFF722FF303262556D1EF9D53E
:100DC000B3460122084302D000227F1C04E02078B1
:100DD000302801D100227F1E002A099784D01DE00F
:100DE000112D07DAFFF70AFF303262556D1C50EA09
:100DF0000102F5D1084302D00098C8B10EE00021ED
:100E0000681E05E0235C625C63542254401E491C4A
:100E10008142F7DBAB46A81B401E0990002004F876
:100E20000B000B98099AC0F80880C0E9002B7AE7FC
:100E300011264FF0000857E72DE9F04F8846044689
:100E4000D21D22F0070191B0D1E90001CDE90A01DC
:100E500002F04EFC02460B98C00F01D02D2007E097
:100E60002068810701D52B2002E0202101EAC00083
:100E7000032A099001D0072A05DB03464146204694
:100E800000F07CF90BE12078800601D5E06900E0F4
:100E90000620B8F1650F814606D0B8F1660F18D06C
:100EA000B8F1670F70D131E00020B9F1110F009057
:100EB00001DB112301E009F101030AAA01A90CA831
:100EC000FFF7E2FEDDE90C70002609F1010583461B
:100ED00047E001204B4600904FF000470AAA01A9C5
:100EE0000CA8FFF7D1FEDDE90DB00C995D46002698
:100EF00010B909F101000D18B9EB050003D4C0F1D8
:100F0000FF3609F10105A5EB09002BE0B9F1010F4E
:100F100001DA4FF001090020B9F1110F00904846A5
:100F200001DD112300E003460AAA01A90CA8FFF77E
:100F3000ABFEDDE90C704D460026834620780007A5
:100F40000AD4AB4500DA5D4601A8012D04DD411944
:100F500011F8011C302907D04F4502DA17F1040FB0
:100F600004DA012082460FE06D1EEEE7002F02DC5E
:100F7000ED1B3E4403E0781CA84200DD7D1CB81B3D
:100F800000F1010A4FF000472078000703D4AA457A
:100F900001DB4FF0FF3A0021B7F1004F0DF143089C
:100FA0008DF8431024D002202B23002F01DA7F423A
:100FB0002D230A21021EA0F1010000DC5FB197FB86
:100FC000F1FC97FBF1F201FB1C7C17460CF1300C95
:100FD00008F801CDEEE7A8F10100037021880905AA
:100FE00001D5452100E06521A0F1010800F8011CB0
:100FF00009980FA9A1EB0807FF1D00B101204119B5
:1010000001EBEA70A1693844081A401EA0612078FB
:10101000C00602D42046FFF7E6FB099828B1D4E9C0
:1010200001219047206A401C20622078C00622D50A
:101030002046FFF7D8FB1EE0002E04DBB34502DD9F
:1010400001A8805D00E03020D4E901219047206AAA
:10105000401C2062761CAAF101005FEA000A0AD156
:1010600000F088F8C0680168405CD4E9012190472D
:10107000206A401C2062281EA5F10105DCDC07E087
:10108000D4E9012118F8010B9047206A401C206226
:10109000381EA7F10107F3DC2046FFF7BAFB032057
:1010A00011B041E610B5436913B1AFF3008001E020
:1010B000FFF786FC012010BD128800F12401828414
:1010C0000022C2840122EDE711684FF0FF32E9E708
:1010D000007B00F08000704770B516460C46054650
:1010E00000F040F8036893F80101012806D0FF2CB6
:1010F0000FD8185D68B101202C7070BDD3F80701BE
:101100003246214603F2071303442846BDE87040E7
:1011100018474FF0FF3070BD754600F0EBF8AE4653
:1011200005006946534620F00700854618B020B5F3
:10113000FFF7DEF8BDE820404FF000064FF0000753
:101140004FF000084FF0000B21F00701AC46ACE86F
:10115000C009ACE8C009ACE8C009ACE8C0098D46DC
:101160007047000010B500F005F8001D10BD00BF6D
:101170007150000000487047802D00202DE9F0419B
:101180001F46044603260168072A01F4006004DBB9
:1011900008B116A505E016A503E008B115A500E005
:1011A00015A521F010002060A069C01EA0610FB13C
:1011B000401EA0612046FFF716FB4FB1D4E9012184
:1011C00038469047206A401C2062C01C206206E01E
:1011D000206AFAE7D4E9012115F8010B9047761E41
:1011E000F8D22046FFF715FBBDE8F0814E414E00D6
:1011F0006E616E00494E4600696E66002DE9F0474B
:10120000814616468AB0354878440DC88DE80D00F1
:1012100032487844801C03AC0DC884E80D0041F6C8
:101220009B300844372190FBF1F290FBF1F5A5F1DA
:10123000800501FB12041B3C02D56442012000E042
:101240000020DFF898A080460027FA44AAF1BE0AE1
:101250000EE0E0070AD03246684607EB470101235B
:101260000AEB810100F01BFB8DE8070064107F1C76
:10127000002CEED1194F7F44AE3F19E0E80715D09E
:1012800007EB04100DF1180A90E80E008AE80E0032
:10129000C068F04201D1981908903246012306A98E
:1012A00003A800F0FCFA03AB83E807006D10641C90
:1012B000002DE3D14FF0010332466946B8F1000F2B
:1012C00003A802D000F0D6FA01E000F0E8FAC9E97C
:1012D0000001C9F808200AB0BDE8F0870C510000F1
:1012E00010B50446AFF300802046BDE81040FEF77D
:1012F000EABF000000487047602D00204FF0013C1D
:1013000050F8042B51F8043B9A4221D1A2EB0C0374
:10131000934313EACC1317D150F8042B51F8043B34
:101320009A4215D1A2EB0C03934313EACC130BD1D1
:1013300050F8042B51F8043B9A4209D1A2EB0C035C
:10134000934313EACC13DBD04FF00000704700BF8B
:10135000D01A01BAB1FA81F101F0180122FA01F0B4
:10136000CB40C1F12001DBB2C0B2C01A2CFA01F3AC
:10137000D11A914311EAC311E6D170475FEA400CDC
:1013800008BF91F0000F4FEA8C234FEAC12243EAD5
:1013900051514FEA1C5018BF00F5F0404FEA3000A1
:1013A00018BF41F000415FEA6C5C00F02980BCF19D
:1013B000FF3F08BF40F080407047130C06BF120487
:1013C0004FF0100C4FF0000C130E04BF12020CF182
:1013D000080C130F04BF12010CF1040C930F04BF8F
:1013E00092000CF1020CD30F04BF52000CF1010C5F
:1013F00011464FF00002A0F11F00A0EB0C00704757
:1014000011F0004F08BF704731F000413FF4D5AFF5
:101410000B0C06BF09044FF0100C4FF0000C0B0E24
:1014200004BF09020CF1080C0B0F04BF09010CF1F9
:10143000040C8B0F04BF89000CF1020CCB0F04BF0E
:1014400049000CF1010CCCF12003A0EB0C0022FAB6
:1014500003F302FA0CF241EA030100F101007047C4
:1014600020F07F4C80EA030023F07F47ACEB0703BA
:1014700003F57C5300F0004003F1FF032DE98049A0
:101480004FEA154B09B44FEA144325EA0B4E24EA00
:1014900003480FF2042606EB132749083E785FEA5B
:1014A000320203FB0667C7F5000707FB06F64FEAA3
:1014B00054374FEAD64606F1020607FB066CCCF11C
:1014C000005C4FEA1C472CEA074C07FB06F40CFBB8
:1014D00006F504EB15464FEA961634BF00204FF090
:1014E00000404FEAD13706FB07FC4FEA1C4C0CFBCF
:1014F0000BF7D21B03FB0CF761EB07010CFB0EF79C
:10150000B0EB074072EB17420CFB08F734BFA2EBBD
:101510000742B2EB074261EB17414FEA0C444FEA36
:10152000910706FB07FC4FEA1C4C0CFB0BF7B0EBDA
:10153000C74072EB573203FB0CF734BFA2EBC74234
:10154000B2EBC74261EB57310CFB0EF7B0EBC700B3
:1015500072EB57720CFB08F734BFA2EBC702B2EB79
:10156000C70261EB5771039F4FEA816141EA921113
:1015700004EBCC044FEAD1374FEA826206FB07FC4A
:1015800042EA90124FEA80604FEA1C4C0CFB0BF7CA
:10159000D21B03FB0CF761EB07010CFB0EF7B0EB62
:1015A000074072EB17420CFB08F734BFA2EB07426F
:1015B000B2EB074261EB17414FEA8C554FEA9107B6
:1015C00004EB9C2406FB07FC4FEA1C4C0CFB0BF7BE
:1015D000B0EBC74072EB573203FB0CF734BFA2EB02
:1015E000C742B2EBC74261EB57310CFB0EF7B0EBD1
:1015F000C70072EB57720CFB08F734BFA2EBC702AF
:10160000B2EBC70261EB577115EB4C254FEA8161D4
:1016100041EA92114FEA82624FEAD13742EA9012D0
:1016200006FB07FC44F100044FEA80604FEA1C4CC3
:101630000CFB0BF7D21B03FB0CF761EB07010CFB58
:101640000EF7B0EB074072EB17420CFB08F734BF04
:10165000A2EB0742B2EB074261EB174115EB1C15F9
:101660004FEA813141EA92414FEA823242EA9042A6
:101670004FEA80304FEA0C7644F1000448EA034315
:101680004EEA0B484FF0000EB2EB080C71EB03076B
:1016900024BF624639464EEB0E0E4FF0000B001889
:1016A000524149414BEB0B0BB2EB080C71EB0307BA
:1016B0007BF1000B24BF624639464EEB0E0E4FF015
:1016C000000B0018524149414BEB0B0BB2EB080CDD
:1016D00071EB03077BF1000B24BF624639464EEBEA
:1016E0000E0E51EA020718BF46F0010616EB0E7601
:1016F00055F1000254F1000103D5BDE88901BDE8B0
:101700000088BDE88901BDE80048B619524141EBA7
:101710000101A3F10103704780807F7E7D7C7B7A8D
:101720007978777676757473727171706F6E6E6D8D
:101730006C6C6B6A6A696868676666656464636333
:1017400062616160605F5F5E5E5D5D5C5C5B5B5AB9
:101750005A59595858575756565555555454535326
:1017600052525251515050504F4F4F4E4E4D4D4D81
:101770004C4C4C4B4B4B4A4A4A49494948484847CC
:10178000474747464646454545444444444343430A
:101790004342424242414141002B9C4630D47700B3
:1017A0002BD01CB54FEA370703B44FF010004FF0B1
:1017B0001001BAF1000F06D0BCF1000FDCBF40F001
:1017C000080040F008014FF000000FBCBDE81040D9
:1017D0000BF1010BBBF1010F08BF5FEA170722BF36
:1017E00012F1010211F101014FF0004143F1000338
:1017F00000F0004043EA00007047F9D35708D0E7F3
:1018000046EA064613F1400F4FEA16461FDD13F174
:10181000200FDFBF16430A46002120335B42BED0B3
:10182000C3F1200746EA064602FA07F74FEA1646D2
:1018300046EA0706C3F1200722FA03F201FA07F786
:1018400021FA03F14FF0000342EA0702A7E746EA54
:10185000020646EA06464FEA164646EA0106BCBFBD
:1018600046EA0646360C4FF000034FF000024FF0F8
:10187000000194E72DE9804C9A46934670B491E8B4
:10188000380007C831EA400C48BF34EA430C03D59E
:10189000FFF7E6FDFFF780FFF0BCBDE8008C2DE907
:1018A000804C9A46934670B491E8380007C810F00F
:1018B000804F08BF13F0804F03D100F005F8FFF709
:1018C0006BFFF0BCBDE8008C20F07F4780EA03008E
:1018D00023F07F4C07EB0C03A3F57C5300F0004092
:1018E000A3F1FE0392F0000F00F0B38095F0000F1B
:1018F00000F077802DE901494FEA11404FEA144684
:1019000021EA004800FB06FC24EA064708FB06F62D
:1019100007FB08F800FB07F718EB06484CEB164CE2
:101920004FEA124B18EB07484FEA15464CEB1740AD
:1019300022EA0B4E0BFB06FC25EA06470EFB06F6D9
:1019400007FB0EFE0BFB07F71EEB064E4CEB164C8F
:101950004FF000061EEB074E4CEB174B18EB0B0835
:1019600040F1000018EB0E0B58EB000840F10000AE
:101970008F1A4FF000013CBFC943661B14BFB5EB83
:10198000040C00213CBFC943F61B4FEA17444EEA42
:101990008E0E27EA04454FEA1C4704FB07622CEA37
:1019A000074C05FB07F70CFB05F604FB0CFC16EBDC
:1019B000074642EB174216EB0C4642EB1C421BEB70
:1019C000060658EB0202414146EA9E0601D5BDE8F3
:1019D0000189B619524141EB0101A3F10103BDE8B0
:1019E00001894FEA14454FEA114724EA054621EAE6
:1019F000074C05FB07F406FB07F70CFB06F105FB9C
:101A00000CFC11EB074144EB17444FEA124711EB72
:101A10000C4144EB1C4422EA074C05FB07F206FB91
:101A200007F70CFB06F605FB0CFC16EB074642EB32
:101A3000174216EB0C4642EB1C456A1854F10001A4
:101A400048BF7047B619524141EB0101A3F10103B0
:101A5000704795F0000F37D04FEA11424FEA144714
:101A600021EA024624EA074C02FB07F106FB07F7CE
:101A70000CFB06F402FB0CFC14EB074441EB174192
:101A80004FEA154714EB0C4441EB1C4125EA074C87
:101A900002FB07F506FB07F70CFB06F602FB0CFC46
:101AA00016EB074645EB174516EB0C4645EB1C427B
:101AB000121951F1000148BF7047B619524141EB6C
:101AC0000101A3F1010370474FEA14454FEA1147A2
:101AD00024EA054621EA074C05FB07F106FB07F758
:101AE0000CFB06F24FF0000605FB0CFC12EB074264
:101AF00041EB174112EB0C4251EB1C4148BF7047C0
:101B0000921841EB0101A3F10103704710B5A2B097
:101B1000802200212E48FEF711FE2EA22FA12C4874
:101B2000FEF724FC2A48FEF773FD36490860802240
:101B300000213548FEF702FE34A326A236A1324822
:101B4000FEF714FC3048FEF763FD3549086080223B
:101B5000002102A8FEF7F2FD2CA01EA31DA231A1B8
:101B6000009002A8FEF702FC02A8FEF751FD044611
:101B7000202035A33D4A2146009002A802F048FDEE
:101B80003A48FEF745FD3A4908608022002139486D
:101B9000FEF7D4FD1DA238A13648FEF7E7FB40F260
:101BA0005B703F4908600846324902683DA002F078
:101BB00019FC074940A002F015FC134942A002F0AD
:101BC00011FC2A4944A002F00DFC22B010BD000017
:101BD00068210020593030320000000025737C73EA
:101BE00065637572656D6F64653D332C7369676EEF
:101BF0006D6574686F643D686D6163736861317CA5
:101C00000000000038000020E8210020613151462A
:101C1000654A48536F417000257326257300000004
:101C20003C000020636C69656E74496425736465CB
:101C3000766963654E616D65257370726F64756357
:101C4000744B6579257300003766623266313863FC
:101C500034663935393434303138643831323766A6
:101C600034363338333564370000000068220020F2
:101C700040000020E822002025732E696F742D613A
:101C8000732D6D7174742E636E2D7368616E676849
:101C900061692E616C6979756E63732E636F6D0077
:101CA00044000020B7FE20CEF120C6F7A3BA25736A
:101CB0003A25640D0A000000BFCDBBA7B6CB49444E
:101CC000A3BA25730D0A0000D3C320BBA720C3FB12
:101CD000A3BA25730D0A0000C3DC20202020C2EB2C
:101CE000A3BA25730D0A000000BFFEE770B50546D4
:101CF0000C462246294615480068801CFEF7A7FCC2
:101D00002046E11704EB1161090A104A12681170AC
:101D1000E11704EB11610912A4EB01210B4A1268CF
:101D20005170002109480268A01C1154074800683E
:101D300000F596700549086008460068044909687E
:101D4000884202D103480149086070BD200000208C
:101D500028000020B01500207047000070B52DED60
:101D6000028BCCB0B3EE010AB0EE408A3FA14148ED
:101D7000FEF73CFC00281CD03E4DAD1D2846FEF76A
:101D800047FC0646324629462046FEF760FC3AA04C
:101D900002F028FB22463F4901A8FEF7E7FA01A816
:101DA000FEF736FC0646324601A93BA000F0D0FB08
:101DB00048E045A12F48FEF719FC00281CD02D4D06
:101DC0006D1D2846FEF724FC06463246294620466D
:101DD000FEF73DFC3EA002F005FB2246444901A867
:101DE000FEF7C4FA01A8FEF713FC0646324601A925
:101DF00029A000F0ADFB25E03EA11E48FEF7F6FB52
:101E000000281CD01B4DAD1D2846FEF701FC0646E0
:101E1000324629462046FEF71AFC38A002F0E2FAC4
:101E200022463D4901A8FEF7A1FA01A8FEF7F0FB02
:101E30000646324601A918A000F08AFB02E037A04E
:101E400002F0D0FA41A42246414901A8FEF78EFAD9
:101E500001A8FEF7DDFB05462A4601A90EA000F009
:101E600077FB4CB0BDEC028B70BD00005049443193
:101E70003300000098240020BFAACABCBDABB3B594
:101E8000CBD9D0C5CFA2BDF8D0D0B4F2B0FC0D0AEA
:101E900000000000306300082F7379732F61315107
:101EA00046654A48536F41702F593030322F74685D
:101EB000696E672F6576656E742F70726F706572CC
:101EC00074792F706F73740050494435000000001E
:101ED000BFAACABCBDABC0E4C8B4D2BACEC2B6C8F1
:101EE000D0C5CFA2BDF8D0D0B4F2B0FC0D0A00002E
:101EF000946300085049443437000000BFAACABCAC
:101F0000BDABD3CDC1BFD0C5CFA2BDF8D0D0B4F248
:101F1000B0FC0D0A0000000004640008BEAFB8E683
:101F2000A3BAB4CBB4CECAFDBEDDB4F2B0FCB9FDE9
:101F3000B3CCB3F6CFD6CECACCE2A3BACEDECAFDBE
:101F4000BEDDB4F2B0FC0D0A000000003135000027
:101F500068640008F0B50A4600210023002400BF91
:101F60003DE0012505FA01F3156805EA03049C42EA
:101F700034D105684F000326BE40B543056015798E
:101F80004E00B5400668354305601579012D02D035
:101F90001579022D16D185684F000326BE40B54342
:101FA000856055794E00B540866835438560456843
:101FB00001268E40B5434560456896798E40B6B29D
:101FC00035434560C5684F000326BE40B543C56034
:101FD000D5794E00B540C6683543C560491C102907
:101FE000BFD3F0BDF0B5002300244D07ED0E02FA7B
:101FF00005F3CE1000F1200555F826504E07F70ED8
:102000000F26BE40B543CF1000F1200646F82750FA
:10201000CE1000F1200555F8265045EA0304CE10F5
:1020200000F1200545F82640F0BD4183704701834B
:1020300070470AB1018300E04183704700BFFEE7AB
:102040001CB50121084600F091FB01200090002002
:102050008DF8040002208DF8070003208DF805009C
:1020600069460648FFF776FF0220009001208DF8B0
:10207000070069460148FFF76DFF1CBD00000240E4
:1020800010B502210748FFF7D2FF01210548FFF7ED
:10209000CEFF20210448FFF7CAFF10210248FFF7B6
:1020A000C6FF10BD00040240000802401CB501211B
:1020B000022000F05BFB0121042000F057FB03200D
:1020C00000908DF8050001208DF8040000208DF8A7
:1020D000060001208DF8070069460C48FFF73AFF1B
:1020E0003020009003208DF8050001208DF80400B9
:1020F00000208DF8060001208DF80700694604488D
:10210000FFF728FFFFF7BCFF1CBD000000040240E2
:102110000008024010B51B481B49086008460068CB
:102120001A4908601A481B4908601B481B49086087
:10213000084600681A4908601A481B4908601B488D
:102140001B490860084600681A4908601A481B497C
:1021500008601B481B490860084600681A49086067
:102160001A481B49086000F055F8002119A000F03A
:1021700065FA002024490870244908702449087031
:1021800010BD0000F8090020080000200C0000200D
:10219000A80E002010000020D40F00201400002002
:1021A00018000020841400201C000020B01500201E
:1021B0002000002024000020601A002028000020B9
:1021C0008C1B00202C000020300000203C20002030
:1021D000340000202F7379732F61315146654A48CE
:1021E000536F41702F593030322F7468696E672FEA
:1021F000736572766963652F70726F70657274793A
:102200002F73657400000000570000205600002066
:102210005400002070B501207A4908600A207A49EC
:1022200008607A480068001D794909680844801CE4
:102230007849096808447849086073480068096863
:10224000441810207549087000BF2046E11704EBC0
:102250005161C911A4EBC115E11704EB5161CC1117
:10226000002C01DD45F080056C48664A12688554F3
:1022700064480068401C63490860002CE5DC0021CC
:10228000664A60480068115404215E480068401C9A
:1022900011544D215B480068801C1154512159484C
:1022A0000068C01C1154542156480068001D115488
:1022B00054480068401D1154042152480068801D94
:1022C0001154C2214F480068C01D115400214D48CF
:1022D00000680830115464214A48006809301154DC
:1022E0004A490868C11700EB1161C1F307224B4B43
:1022F000444909680A315A5444490868C11700EB37
:1023000011610912A0EB0121CAB23E4909680B31E3
:102310005A541A463B4909680C3150183B490A681F
:102320003F49FEF794F93A490868C11700EB11617B
:10233000C1F30722334909680C31344B1B68194437
:10234000364B5A5432490868C11700EB1161091223
:10235000A0EB0121CAB22B4909680D312B4B1B6838
:1023600019442E4B5A54274909680E31274A1268DE
:1023700011441A46881826490A682A49FEF767F95F
:1023800024490868C11700EB1161C1F307221D49F8
:1023900009680E311D4B1B6819441D4B1B681944FD
:1023A0001E4B5A541B490868C11700EB11610912F2
:1023B000A0EB0121CAB2134909680F31134B1B6806
:1023C0001944134B1B681944144B5A540D4909689E
:1023D00010310E4A126811440D4A126811441A460F
:1023E00088180C490A681049FEF731F90548006859
:1023F000054A12681044084A12688118074800F01C
:10240000ABFE70BD480000204C00002038000020CA
:102410003C000020400000205000002068230020E5
:1024200068210020E8210020682200202DE9F04FDB
:10243000D1B0804698F8011098F8000001EB002018
:10244000509008F102070020814605460646834663
:1024500001244FF0010A00BF0BF1010B00BF281946
:1024600017F8009009F07F0000FB0A664FEACA1ACD
:10247000641C09F080000028F1D13019054431199D
:102480005098401A50900124A246002650980028E7
:10249000E2D1594620A001F0A5FF002005460646DE
:1024A00000BF00BF4C9030E000BF281917F8009023
:1024B00009F07F0000FB0A664FEACA1A641C09F0A3
:1024C00080000028F1D1601C2844395C6019385C18
:1024D00001EB0020801C4F904F98301A4E90291924
:1024E0004F9808444D904D98391801A84E9AFEF720
:1024F000AEF801A84E99FFF7F9FB30190544012405
:10250000A24600264C98401C4C904C985845CBDB7A
:1025100051B0BDE8F08F0000B1BEB4CEBDD3CAD576
:10252000C1CB2564B8F6CDC6CBCDCAFDBEDD0D0A44
:102530000000000010B5C020044908700020487059
:102540000221024800F008FE10BD000068230020B0
:102550002DE9F047054688461646012033490860B4
:102560002846FEF755F8801C31490860314806605E
:10257000084600682F490968441830202E49087021
:1025800000BF2046E11704EB5161C911A4EBC1174C
:10259000E11704EB5161CC11002C01DD47F08007FD
:1025A0002548224A1268875420480068401C1F4969
:1025B0000860002CE5DC2846FEF72AF8C0F3072166
:1025C0001D4A1A48006811542846FEF721F8C1B286
:1025D000194A16480068401C11542846FEF718F89E
:1025E0008146154A11490968891C50184A462946EE
:1025F000FEF72DF82846FEF70BF80C490968891CF0
:1026000008440D4900EB0109324641464846FEF7B1
:102610001EF806480068064A12681044054A126807
:102620008118054800F098FDBDE8F08748000020BB
:102630004C000020500000206823002070B50446A4
:102640000D4602201F4908601F4908602046FDF71B
:10265000DFFFC01C1D49086082201D4908701A4810
:1026600000781A4909780844194948700020887090
:102670000120C8702046FDF7CBFF000A14490871FD
:102680002046FDF7C5FF124948712046FDF7C0FFFF
:102690000646324621460E48801DFDF7D8FF2046EB
:1026A000FDF7B6FF801D0A490D5406480068064A2A
:1026B00012681044054A12688118054800F04CFD64
:1026C00070BD0000480000204C0000205000002099
:1026D0006823002000BFFEE77047000070B50021AE
:1026E00000230F22C4781CB3174C246804F4E06460
:1026F000C4F5E064C4F30721C1F10404E3B20A4164
:1027000044789C40E1B28478144021430C07210EA8
:102710000E4C05786155047804F01F050124AC4087
:1027200005786D11AD0005F1E025C5F8004109E01F
:10273000047804F01F050124AC40054D067876119D
:1027400045F8264070BD00000CED00E000E400E01C
:1027500080E100E002490143024A11607047000035
:102760000000FA050CED00E07047000029B1064AB0
:1027700012680243044B1A6004E0034A1268824361
:10278000014B1A60704700003038024029B1064AF8
:1027900012680243044B1A6004E0034A1268824341
:1027A000014B1A60704700004038024029B1064AC8
:1027B00012680243044B1A6004E0034A1268824321
:1027C000014B1A60704700002038024029B1064AC8
:1027D00012680243044B1A6004E0034A1268824301
:1027E000014B1A60704700004438024029B1064A84
:1027F00012680243044B1A6004E0034A12688243E1
:10280000014B1A607047000024380240F0B50021E7
:1028100000220024022500260223324F3F6807F0E1
:102820000C0121B1042905D0082937D105E02E4F2C
:10283000076036E02D4F076033E02A4F3F1F3F68A7
:10284000C7F38056274F3F1F3F6807F03F036EB125
:10285000264FB7FBF3F7DFF88CC0ACF1040CDCF8C3
:1028600000C0CCF3881C07FB0CF40CE01E4FB7FB38
:10287000F3F7DFF870C0ACF1040CDCF800C0CCF367
:10288000881C07FB0CF4174F3F1F3F68C7F3014735
:102890007F1C7D00B4FBF5F7076002E0124F076074
:1028A00000BF00BF0F4F3F6807F0F0010909104F4C
:1028B0007A5C0768D74047600A4F3F6807F4E051E9
:1028C000890A0B4F7A5C4768D7408760054F3F689D
:1028D00007F46041490B064F7A5C4768D740C760F0
:1028E000F0BD0000083802400024F40040787D016B
:1028F0006C000020704700000CB500200190009093
:102900003448006840F480303249086000BF3148E4
:10291000006800F4003000900198401C019000987D
:1029200018B90198B0F5A04FF1D12A48006800F419
:10293000003010B10120009001E0002000900098CC
:10294000012846D123484030006840F0805021499A
:10295000403108602048006840F440401E4908604B
:102960001C48083000681B490831086008460068A8
:1029700040F4004008600846006840F4A050086039
:102980001648091F0860081F006840F08070091F82
:10299000086000BF0F48006800F000700028F9D000
:1029A00040F205700E4908600A480830006820F0BF
:1029B00003000849083108600846006840F002003A
:1029C000086000BF03480830006800F00C000828C9
:1029D000F8D10CBD00380240007000401954400787
:1029E000003C0240042808D14FF0E021096941F081
:1029F00004014FF0E022116107E04FF0E021096986
:102A000021F004014FF0E02211617047704700008F
:102A100010B51548006840F4700013490860134869
:102A2000006840F001001149086000200F4908319A
:102A300008600E4800680E4908400C4908600D48BF
:102A4000091D0860081F006820F48020091F086025
:102A5000002006490C310860FFF74EFF4FF0006080
:102A600001498039086010BD88ED00E0003802405F
:102A7000FFFFF6FE1030002470B50024002500266C
:102A80000121880700F00AFB00286FD059A001F04F
:102A9000A9FC01F0E9FB01F011FB59A001F01EFDBA
:102AA00000BF07E0002500E06D1E44F6206085426F
:102AB000FAD3641E41F268008442F3D353A155480F
:102AC000FDF794FD28B1FFF749F90020524908604D
:102AD00007E052A001F086FCFFF740F900204E49C4
:102AE000086055A001F0FAFC002407E0002500E092
:102AF0006D1E44F620608542FAD3641E41F26800E0
:102B00008442F3D34FA14348FDF770FD28B1FFF78E
:102B100025F900204049086023E04AA13D48FDF71F
:102B200065FDD8B949A001F0D9FC002407E00025D3
:102B300000E06D1E44F620608542FAD3641E41F227
:102B400068008442F3D344A13248FDF74FFD40B101
:102B5000FFF704F900203049086002E040A001F0CE
:102B600041FC3AA001F0BAFC002408E03DE0002559
:102B700000E06D1E44F620608542FAD3641E41F2E7
:102B800068008442F3D334A12248FDF72FFD28B119
:102B9000FFF7E4F800202049086026E029A11D483D
:102BA000FDF724FDD8B929A001F098FC002407E026
:102BB000002500E06D1E44F620608542FAD3641EB5
:102BC00041F268008442F3D323A11248FDF70EFDC1
:102BD00058B1FFF7C3F800200F49086005E028A0AE
:102BE00001F000FC00200C4908600121880700F07A
:102BF0007DF970BDB5F7CAD431350D0A000000006B
:102C000041545049443D31330D0A0000504944318C
:102C1000330000009824002058000020BDD3CAD5FE
:102C2000B3B5CBD9CAFDBEDDCAB1B7A2C9FAB4EDFE
:102C3000CEF30D0A0000000041545049443D3035A8
:102C40000D0A0000504944303500000041545049FD
:102C5000443D34370D0A0000504944343700000029
:102C6000BDD3CAD5C0E4C8B4D2BACEC2B6C8CAFDB4
:102C7000BEDDCAB1B7A2C9FAB4EDCEF30D0A0000A9
:102C8000BDD3CAD5CAFDBEDDB4EDCEF30D0A00003A
:102C90001FB54FF4A060FFF75DFD01210220FFF793
:102CA00075FD184800F032F944F61F60029041F6B5
:102CB0001F40ADF804000020ADF80600ADF80C0090
:102CC00001A9104800F006FA01210E4800F00EF9A3
:102CD000012211460B4800F0F2F90121094800F0E9
:102CE00008F91D208DF8000002208DF80100002059
:102CF0008DF8020001208DF803006846FFF7EEFC16
:102D00001FBD0000000400401FB54FF4A060FFF796
:102D100021FD01210220FFF739FD174800F0F6F8E8
:102D20004EF65F20029048F69F40ADF80400002068
:102D3000ADF80600ADF80C0001A90F4800F0CAF983
:102D400001210D4800F0D2F8012211460A4800F096
:102D5000B6F90121084800F0CCF81D208DF80000DC
:102D600002208DF8010001208DF802008DF803008B
:102D70006846FFF7B3FC1FBD0004004010B50121F9
:102D8000164800F08BF938B315480078062819D298
:102D9000DFE800F003060B0C0D10FFF7CBFB11E092
:102DA000FFF776FFFFF7C6FB0CE000BF00BFFFF7A1
:102DB000C1FB07E000200B4908700021074800F024
:102DC00098F800BF00BF06480078401C044908700E
:102DD0000121024800F08AF810BD00000004004004
:102DE000540000205500002010B501211D4800F0BE
:102DF00055F9002834D01C481C4902681C4800685A
:102E0000801CFDF724FC18480088000A184909684E
:102E10000870154800781649096848701448006819
:102E200000F5967012490860084600681149096863
:102E3000884202D110480E49086000200A49086003
:102E400000210E4800F044F90021064800F051F836
:102E50000021044800F03CF90121024800F046F846
:102E600010BD00000008004004000020F801002010
:102E70000800002010000020F80900200004004095
:102E80007FB505460C464FF4A060FFF763FC0121B7
:102E90000420FFF77BFC0295ADF804400020ADF85C
:102EA0000600ADF80C0001A90F4800F013F901214C
:102EB0000D4800F01BF8012211460B4800F0FFF806
:102EC0000021094800F015F81E208DF800000220AE
:102ED0008DF8010000208DF8020001208DF803001C
:102EE0006846FFF7FBFB7FBD00080040CA43028233
:102EF000704721B1028842F00102028004E002889A
:102F00004FF6FE731A4002807047000010B5044669
:102F10005548844208D101210846FFF767FC00218B
:102F20000120FFF763FC9DE0B4F1804F08D101213F
:102F30000846FFF73BFC00210120FFF737FC91E03A
:102F40004A48844208D101210220FFF72FFC0021CA
:102F50000220FFF72BFC85E04548844208D101217F
:102F60000420FFF723FC00210420FFF71FFC79E079
:102F70004048844208D101210820FFF717FC0021B6
:102F80000820FFF713FC6DE03B48844208D1012183
:102F90001020FFF70BFC00211020FFF707FC61E079
:102FA0003648844208D101212020FFF7FFFB002191
:102FB0002020FFF7FBFB55E03148844208D1012176
:102FC0000220FFF713FC00210220FFF70FFC49E06D
:102FD0002C48844209D101210804FFF707FC002195
:102FE0004FF48030FFF702FC3CE02748844209D1CF
:102FF00001214804FFF7FAFB00214FF40030FFF7EE
:10300000F5FB2FE02148844209D101218804FFF714
:10301000EDFB00214FF48020FFF7E8FB22E01C4885
:10302000844208D101214020FFF7C0FB002140204D
:10303000FFF7BCFB16E01748844208D1012180202D
:10304000FFF7B4FB00218020FFF7B0FB0AE0124835
:10305000844207D101218015FFF7A8FB0021A015AC
:10306000FFF7A4FB10BD0000000001400004004079
:1030700000080040000C0040001000400014004018
:10308000000401400040014000440140004801406C
:1030900000180040001C00400020004030B50246EF
:1030A000002000230024158A05EA0103958905EA1A
:1030B000010413B10CB1012000E0002030BD1AB1B1
:1030C00083890B43838102E083898B43838170472B
:1030D0004162704700220288184B98420ED0184B6C
:1030E00098420BD0B0F1804F08D0164B984205D0D3
:1030F000154B984202D0154B984204D14FF68F736E
:103100001A404B881A43124B984207D0114B9842F1
:1031100004D04FF6FF431A400B891A4302804B68D4
:10312000C3620B880385054B984202D0044B98423A
:1031300001D18B7A0386012383827047000001400E
:10314000000401400004004000080040000C004062
:10315000001000400014004070B505460C462246A1
:10316000294613480068801CFDF771FA2046E117D4
:1031700004EB1161090A0E4A12681170E11704EBA1
:1031800011610912A4EB0121094A12685170084823
:10319000006800F596700649086008460068054911
:1031A0000968884202D104480149086070BD0000E6
:1031B000140000201C000020D40F002010B50024B3
:1031C00040F225511D4800F029F910B31B4800F0CA
:1031D000DFF9C4B21A48008800F40040C8B91848A2
:1031E000008800F4804060B10A2C03D0002014490C
:1031F000088022E01248008840F40040104908800E
:103200001BE00D2C06D10E48008840F480400C498C
:10321000088012E00A480088C0F30D0009490C54E8
:1032200007480088401C0649088008460088C0F30B
:103230000D00C72801DD0020088010BD00100140EE
:1032400064000020982C002010B540F22551184849
:1032500000F0E4F858B31748007880B91448001D0E
:10326000008820B31248001D00881349134A1268D1
:10327000885412480068401C1049086017E00C4848
:10328000001D00880C490D4A126888540B480068DC
:1032900020B901210A48FFF72CFE03E0002108486D
:1032A000FFF716FF05480068401C0449086010BD80
:1032B0000044004055000020F801002004000020D8
:1032C0000008004010B540F225510A4800F0A6F869
:1032D00078B10848001D008858B10648001D0088D4
:1032E0000549064A1268885404480068401C03498E
:1032F000086010BD004800409824002058000020BD
:1033000001F40072B2F5007F00D100BFCA43028011
:10331000704721B1828942F40052828104E082899F
:103320004DF6FF731A4082817047000010B50446C5
:103330003248844208D101211020FFF757FA0021BA
:103340001020FFF753FA57E02D48844209D101219C
:103350004804FFF72BFA00214FF40030FFF726FA5C
:103360004AE02848844209D101218804FFF71EFA67
:1033700000214FF48020FFF719FA3DE022488442F3
:1033800009D10121C804FFF711FA00214FF40020F0
:10339000FFF70CFA30E01D48844209D101210805ED
:1033A000FFF704FA00214FF48010FFF7FFF923E044
:1033B0001748844208D101212020FFF717FA002185
:1033C0002020FFF713FA17E01248844209D10121A7
:1033D0008807FFF7EBF900214FF08040FFF7E6F98F
:1033E0000AE00D48844207D101214005FFF7DEF9CC
:1033F00000216005FFF7DAF910BD00000010014060
:103400000044004000480040004C00400050004094
:103410000014014000780040007C004070B5024676
:10342000002400230025002040F66A16B14200D196
:1034300000BFC1F3421501F01F03012606FA03F392
:10344000012D02D19689334006E0022D02D1168A61
:10345000334001E0968A33400C12012606FA04F448
:103460001688344013B10CB1012000E0002070BD7B
:10347000F0B50346002400260025002040F66A1718
:10348000B94200D100BF1846C1F3421401F01F0633
:10349000012707FA06F5012C01D10C3004E0022CBB
:1034A00001D1103000E014301AB107682F430760D3
:1034B00002E00768AF430760F0BD00002DE9FF4759
:1034C00005460E460024A14600BFA046B08900B1C3
:1034D00000BF2C8A24F44054F08804432C82AC8929
:1034E00041F20C608443B0883189084371890843F4
:1034F0000443AC81AC8A24F44074B0890443AC82A8
:103500006846FFF783F92048854202D01F4885426C
:1035100002D1DDF80C9001E0DDF80890A88900F4F4
:10352000004040B109EBC90000EB091031684900C7
:10353000B0FBF1F707E009EBC90000EB09103168B7
:103540008900B0FBF1F76420B7FBF0F0040120091B
:10355000642101FB1078A88900F4004040B13220BA
:1035600000EBC800B0FBF1F000F00700044308E0F6
:10357000322000EB08106421B0FBF1F000F00F00E6
:1035800004432C81BDE8FF87001001400014014076
:1035900001468888C0F30800704700BFFEE70000BE
:1035A00010B586B0044601211020FFF70FF9012164
:1035B0000846FFF7DBF81B48FFF7B8FE0722092192
:1035C0001948FEF70FFD07220A211748FEF70AFDEA
:1035D0004FF4C060049003208DF8150002208DF890
:1035E000140000208DF8160001208DF8170004A9A2
:1035F0000D48FEF7AFFC00940020ADF80400ADF8D4
:103600000600ADF80800ADF80C000820ADF80A007F
:1036100069460448FFF752FF01210248FFF779FE8F
:1036200006B010BD001001400000024010B588B087
:1036300004464FF4A060FFF78DF801214804FFF71E
:10364000A5F801210846FFF791F82748FFF76EFE1D
:10365000072202212548FEF7C5FC07220321234843
:10366000FEF7C0FC0C20069003208DF81D00022000
:103670008DF81C0000208DF81E0001208DF81F0021
:1036800006A91A48FEF766FC02940020ADF80C006B
:10369000ADF80E00ADF81000ADF814000C20ADF838
:1036A000120002A91048FFF709FF20210E48FFF77A
:1036B00027FE012240F225510B48FFF7D9FE2620B4
:1036C0008DF8040000208DF805008DF8060001201B
:1036D0008DF8070001A8FFF701F801210248FFF764
:1036E00018FE08B010BD0000004400400000024079
:1036F00003B401984100009850EAC12018BF04208B
:103700004A0D18BF40F0010040F2FF72B2EB515F6A
:1037100008BF40F00200012808BF052002B0704732
:1037200030380A2801D20120704700207047014636
:1037300000BF704710B59E480078012872D19D489F
:1037400000689D49096888422AD09A4800688078B4
:1037500010280CD0974800688078822803D19748B9
:103760000078012803D096480078012818D19148A4
:103770000068817893A000F035FE8E48006800F064
:103780005FFE8C48006800F596708A49086008461C
:10379000006890490968884202D18F4885490860CD
:1037A0008E4800688E49096888427CD08DA000F060
:1037B00019FE8A480068807820283CD18748006834
:1037C000407906282FD2DFE800F0030A11181F26DF
:1037D00087A000F007FE0120784908702AE089A040
:1037E00000F000FE00207249087023E090A000F075
:1037F000F9FD00206E4908701CE099A000F0F2FD70
:1038000000206B49087015E09FA000F0EBFD002040
:10381000674908700EE0A7A000F0E4FD00206449AD
:10382000087007E098E0ABA000F0DCFD00206049E4
:10383000087000BF4EE0694800688078902822D167
:1038400066480068807910B1012814D100E000BFFB
:10385000A9A000F0C7FD0120594908700020A9491E
:103860000870FFF751FA01218807FFF742FBA6A075
:1038700000F0B8FD06E0A8A000F0B4FD00204C491F
:10388000087000BF26E0554800688078D02815D120
:10389000A7A000F0A7FD9B480078012804D10020D4
:1038A0009849087016E024E096480078012811DD58
:1038B000002094490870FFF727FA0BE0474800689A
:1038C0008078302806D19EA000F08CFD4348006827
:1038D000FEF7ACFD4148006800F596703F4908606E
:1038E000084600689B490968884202D19A483B49CA
:1038F00008609A4800689A490968884257D09748F2
:103900000168891C97A000F06DFD99A1934800689B
:10391000801CFCF76BFE20B102219C48FEF785FB62
:103920000AE09BA18D480068801CFCF75FFE18B17F
:1039300002219648FEF77BFB8848006800F59670E8
:1039400086490860084600689849096888422ED16F
:103950009748824908602AE096A000F043FD0021C4
:103960009948FFF7C6FA00219848FFF7C2FA0021EC
:103970004FF08040FFF7BDFA0020954908604FF4F2
:1039800080619448FCF7E2FE00F09EF978B992A0BD
:1039900000F028FD01200649087000208C490860CD
:1039A0004FF480618B48FCF7D1FEFEF7B3FB10BDEE
:1039B00055000020180000201400002056000020B0
:1039C00057000020B7A2CBCDCAFDBEDD3A30782526
:1039D000780D0A001C000020D40F00200C000020ED
:1039E00008000020BDD3CAD5B5BDCAFDBEDD3A0072
:1039F000434F4E4E454354B1A8CEC4B3C9B9A60DEA
:103A00000A000000C1ACBDD3D2D1BEDCBEF8A3AC6D
:103A1000B2BBD6A7B3D6B5C4D0ADD2E9B0E6B1BE7D
:103A2000A3ACD7BCB1B8D6D8C6F40D0A00000000CC
:103A3000C1ACBDD3D2D1BEDCBEF8A3ACB2BBBACF51
:103A4000B8F1B5C4BFCDBBA7B6CBB1EACAB6B7FB18
:103A5000A3ACD7BCB1B8D6D8C6F40D0A000000009C
:103A6000C1ACBDD3D2D1BEDCBEF8A3ACB7FECEF1A3
:103A7000B6CBB2BBBFC9D3C3A3ACD7BCB1B8D6D841
:103A8000C6F40D0A00000000C1ACBDD3D2D1BEDC2B
:103A9000BEF8A3ACCEDED0A7B5C4D3C3BBA7C3FBCF
:103AA000BBF2C3DCC2EBA3ACD7BCB1B8D6D8C6F46A
:103AB0000D0A0000C1ACBDD3D2D1BEDCBEF8A3ACB0
:103AC000CEB4CADAC8A8A3ACD7BCB1B8D6D8C6F4AD
:103AD0000D0A0000C1ACBDD3D2D1BEDCBEF8A3AC90
:103AE000CEB4D6AAD7B4CCACA3ACD7BCB1B8D6D8D8
:103AF000C6F40D0A00000000B6A9D4C4B3C9B9A623
:103B00000D0A000054000020B6A8CAB1C6F732BFA3
:103B1000AAC6F40D0A000000B6A9D4C4CAA7B0DC36
:103B2000A3ACD7BCB1B8D6D8C6F40D0A00000000CB
:103B300050494E47B1A8CEC4BBD8B8B40D0A000056
:103B4000B7FECEF1C6F7B5C8BCB630CDC6CBCD0DED
:103B50000A00000010000020F809002024000020C6
:103B600020000020C3FCC1EE3A25730D0A000000BE
:103B700022706172616D73223A7B22506F77657299
:103B8000537769746368223A317D00000004024073
:103B900022706172616D73223A7B22506F77657279
:103BA000537769746368223A307D00002800002052
:103BB000B0150020D0E8D2AAC1ACBDD3B7FECEF17B
:103BC000C6F70D0A00000000000800400004004095
:103BD00004000020F8010020BDA8C1A2544350C138
:103BE000ACBDD3B3C9B9A60D0A00000010B5044698
:103BF0006FF00400FEF7F6FEE11704EB5171C1F31C
:103C0000C701074A11701046007800EB4001C1EB74
:103C1000C0104FF6FF7101EAC0000249088010BDD4
:103C20005C0000205E00002070B504464FF4077071
:103C300094FBF0F0C6B24FF4077094FBF0F100FB78
:103C4000114085B205E04FF4077000F009F8701ECE
:103C5000C6B2002EF7D115B1284600F001F870BDAC
:103C60000146114A12884A434FF0E0235A6100226C
:103C70009A611A46126942F001021A6100BF4FF0C0
:103C8000E022106900F001021AB100F48032002A2B
:103C9000F5D04FF0E022126922F001024FF0E0234C
:103CA0001A6100229A6170475E000020044603E01A
:103CB000214602A0FCF74EFBFAE700004552524FA6
:103CC0005225640D0A00000010B526A000F08AFB02
:103CD000322000F06FF920B128A000F083FB012012
:103CE00010BD2EA000F07EFB32A000F07BFB322046
:103CF00000F00EF920B133A000F074FB0220EFE7D2
:103D000036A000F06FFB17A000F06CFB322000F033
:103D100051F920B119A000F065FB0320E0E71FA0D6
:103D200000F060FB30A000F05DFB322000F0A4F852
:103D300020B132A000F056FB0420D1E736A000F0FD
:103D400051FB3AA000F04EFB322000F0E1F820B128
:103D50003EA000F047FB0520C2E743A000F042FB75
:103D60000020BDE7D7BCB1B8BDF8C8EB4154D6B808
:103D7000C1EEC4A3CABD0D0A00000000BDF8C8EB27
:103D80004154D6B8C1EEC4A3CABDCAA7B0DCA3AC27
:103D9000D7BCB1B8D6D8C6F40D0A0000B3C9B9A6CD
:103DA000BDF8C8EB4154D6B8C1EEC4A3CABD0D0AD4
:103DB00000000000D7BCB1B8B8B4CEBBC4A3BFE903
:103DC0000D0A0000B8B4CEBBCAA7B0DCA3ACD7BC08
:103DD000B1B8D6D8C6F40D0A00000000B8B4CEBB06
:103DE000B3C9B9A60D0A0000D7BCB1B8C9E8D6C39B
:103DF000544350C1ACBDD30D0A000000C9E8D6C37E
:103E0000544350C1ACBDD3CAA7B0DCA3ACD7BCB13E
:103E1000B8D6D8C6F40D0A00C9E8D6C3544350C179
:103E2000ACBDD3B3C9B9A60D0A000000D7BCB1B868
:103E3000D6D8C6F4C4A3BFE9A3ACBDF8C8EBCDB8CF
:103E4000B4ABC4A3CABD0D0A00000000C9E8D6C3C4
:103E5000CDB8B4ABCAA7B0DCA3ACD7BCB1B8D6D888
:103E6000C6F40D0A00000000C9E8D6C3CDB8B4AB53
:103E7000B3C9B9A60D0A000070B50446002500209C
:103E8000144908604FF480611348FCF75FFC134845
:103E90001349026813A000F0F3FA0CE06420FFF766
:103EA000C3FE16A10C48FCF7A1FB00B107E02146B8
:103EB00015A000F097FA201EA4F10104EED100BF76
:103EC00012A000F08FFA002C01DC012070BD002050
:103ED000FCE7000004000020F8010020440000205E
:103EE000E822002041542B534F434B413D54435053
:103EF0002C25732C25640D0A00000000616C697983
:103F0000756E637300000000256420000D0A000038
:103F100010B504464FF4FA70FFF786FE0FA000F0CC
:103F2000AFFA0DE04FF47A70FFF77EFE0DA10F4857
:103F3000FCF75CFB00B107E021460DA000F052FA4F
:103F4000201EA4F10104EDD100BF05A000F04AFA43
:103F5000002C01DC012010BD0020FCE741542B5A4D
:103F60000D0A00004734303574660000F801002067
:103F7000256420001CB501210846FEF7F7FB102040
:103F8000009003208DF8050001208DF8040000202A
:103F90008DF8060001208DF8070069460448FDF7FA
:103FA000D9FF012210210248FEF743F81CBD000092
:103FB0000000024010B504460020174908604FF485
:103FC00080611648FCF7C2FB17E015A000F058FA14
:103FD0004FF47A70FFF728FE12A000F051FA4FF468
:103FE0007A70FFF721FE10A10C48FCF7FFFA00B130
:103FF00007E021460DA000F0F5F9201EA4F1010410
:10400000E3D100BF0AA000F0EDF9002C01DC012093
:1040100010BD0020FCE7000004000020F801002093
:104020002B2B2B00610000006F6B0000256420002B
:104030000D0A000000BF054A128802F04002002A63
:10404000F9D0C2B2014B9A807047000000100140C5
:10405000A820FFF7CBFDFEF729F84FF41650FFF725
:104060009FFA4FF4E130FFF7E1FA4FF4E1514FF4DA
:10407000FA70FEF705FF4FF4165000F05DFA00F0FD
:1040800077F90CA000F0AEF900214FF08040FEF768
:1040900030FFFEF70BF8FDF7D3FFFFF76BFFFDF7DF
:1040A00035FD49F64040FFF7BFFD01E0FFF742FB59
:1040B000FCE70000B5F7CAD40D0A000010B52DEDDD
:1040C000028BCCB0B3EE010AB0EE408A344890F8CF
:1040D0005100002860D00020314981F8510031A002
:1040E00000F080F92E48523000F07CF933A000F047
:1040F00079F92B4890F8780000284AD00020284908
:1041000081F878002EA000F06DF925485D3000F0B0
:1041100069F92AA000F066F9214A5D322E4901A80A
:10412000FCF724F901A8FCF773FA0446224601A91A
:104130002AA0FEF70DFA35A000F054F918486830AF
:1041400000F050F91DA000F04DF935A000F04AF93B
:1041500013486A3000F046F918A000F043F9104AFD
:104160006A321D4901A8FCF701F901A8FCF750FAD1
:104170000446224601A919A0FEF7EAF92EA000F094
:1041800031F90748763000F02DF90CA000F02AF93B
:1041900002E02EA000F026F94CB0BDEC028B10BD61
:1041A0007C000020536176655F446174612E555434
:1041B0004354696D65203D20000000000D0A000099
:1041C000536176655F446174612E6C6174697475C6
:1041D0006465203D20000000046400082F7379739B
:1041E0002F61315146654A48536F41702F59303025
:1041F000322F7468696E672F6576656E742F7072E2
:104200006F70657274792F706F7374005361766587
:104210005F446174612E4E5F53203D20000000001A
:10422000536176655F446174612E6C6F6E6769746B
:10423000756465203D200000536176655F446174BC
:10424000612E455F57203D2000000000475053205D
:1042500044415441206973206E6F74207573656604
:10426000756C6C210D0A0000F8B50026394890F8ED
:10427000500000286CD00020364981F8500036A04C
:10428000FCF768F83348FCF747F800BF5EE046B932
:1042900036A13048FCF7AAF9041E55D10120FFF7DA
:1042A00005FD641C31A12046FCF7A0F9051E48D08D
:1042B000072E2ED2DFE806F02D040B11181F260062
:1042C0002A1B214623485230FCF7C1F922E02A1B61
:1042D00021466846FCF7BBF91CE02A1B21461D4815
:1042E0005D30FCF7B4F915E02A1B21461948683007
:1042F000FCF7ADF90EE02A1B214616486A30FCF7A0
:10430000A6F907E02A1B214612487630FCF79FF9F0
:1043100000E000BF00BF2C4601200E4981F851008B
:104320009DF80000412803D1012081F8780007E0C2
:104330009DF80000562803D10020064981F8780036
:1043400002E00220FFF7B2FC701CC6B2062E9EDD12
:10435000F8BD00007C0000202A2A2A2A2A2A2A2ABC
:104360002A2A2A2A2A2A0D0A000000002C0000000E
:104370001FB501210846FEF709FA4FF08040FEF70D
:10438000C5FD42F2CF00ADF804004AF20F400290A2
:104390000020ADF80600ADF80C0001A94FF08040F8
:1043A000FEF798FE012211469007FEF788FE1C20BA
:1043B0008DF8000001208DF803008DF80100022027
:1043C0008DF802006846FEF789F901218807FEF79B
:1043D0008DFD02A000F006F81FBD0000B5F7CAD49D
:1043E000330D0A000FB438B505A800901248009AA2
:1043F0000499FBF79DFF002000900F48FCF708F997
:10440000054600BF0D48008800F040000028F9D0A4
:1044100000240BE00848005D0849888000BF074879
:10442000008800F040000028F9D0641CAC42F1D3B1
:1044300038BC5DF814FB0000F800002000100140BB
:1044400000BF0E4A128802F04002002AF9D0012172
:104450000CE04A1C825C094B1B1D1A8000BF074AF6
:10446000128802F04002002AF9D0491C43780278F1
:1044700003EB02228A42ECDA70470000004400405D
:104480000FB438B505A800901248009A0499FBF7BC
:104490004FFF002000900F48FCF7BAF8054600BF18
:1044A0000D48008800F040000028F9D000240CE0FE
:1044B0000848005D0849091D088000BF06480088BB
:1044C00000F040000028F9D0641CAC42F0D338BCA6
:1044D0005DF814FBF8050020004400400FB438B527
:1044E00005A800901248009A0499FBF721FF0020CC
:1044F00000900F48FCF78CF8054600BF0D48008877
:1045000000F040000028F9D000240CE00848005DCD
:104510000849091D088000BF0648008800F04000D7
:104520000028F9D0641CAC42F0D338BC5DF814FB11
:10453000982800200048004010B588B004460121AA
:104540008804FEF723F901210220FEF70FF928481D
:10455000FEF7ECFE07220A212648FDF743FD07225D
:104560000B212448FDF73EFD4FF4A060FEF7F2F862
:104570004FF44060069002208DF81C0000208DF85A
:104580001E0001208DF81F0002208DF81D0006A9D5
:104590001848FDF7DFFC02940020ADF814000C2051
:1045A000ADF812000020ADF81000ADF80E00ADF827
:1045B0000C0002A90E48FEF781FF012240F22551AE
:1045C0000B48FEF755FF27208DF8040001208DF8D9
:1045D000070000208DF805008DF8060001A8FEF701
:1045E0007DF801210248FEF794FE08B010BD0000DE
:1045F0000048004000040240014601F00F010A2972
:1046000002DA01F1300001E001F1570040B27047D9
:104610002DE9F043BDB00646884615461F46DDF835
:1046200010910EB105B117B93DB0BDE8F083B9F1F5
:10463000400F00DDF8E7402116A8FCF7A9F840215B
:1046400006A8FCF7A5F84A46394616A8FBF7FFFF6F
:104650004A46394606A8FBF7FAFF00240CE016A8E4
:10466000005D80F0360016A9085506A8005D80F0B0
:104670005C0006A90855641C402CF0DB26A800F05D
:10468000AFF826A801F042FD402216A926A801F0A5
:1046900053FD4246314626A801F04EFD01A926A849
:1046A00000F02AF826A800F09BF826A801F02EFDBD
:1046B000402206A926A801F03FFD142201A926A840
:1046C00001F03AFD01A926A800F016F800240FE039
:1046D00001A9095D0811FFF78FFF05F8140001A972
:1046E000085DFFF789FF012101EB44016854641C58
:1046F000142CEDDB00BF97E72DE9FC4704460D467F
:104700002068400F616840EAC1062068C700300E8B
:104710008DF80000300C8DF80100300A8DF8020091
:10472000F0B28DF80300380E8DF80400380C8DF8C7
:104730000500380A8DF80600F8B28DF807002078D9
:1047400000F03F08B8F1380F02D2C8F1380001E09C
:10475000C8F1780081464A462049204601F0ECFC29
:1047600008226946204601F0E7FCA068000E287088
:10477000A068000C68702089000AA870207AE87090
:10478000E068000E2871E068000C6871A089000ADA
:10479000A871207BE8712069000E28722069000C46
:1047A0006872208A000AA872207CE8726069000E94
:1047B00028736069000C6873A08A000AA873207DC2
:1047C000E873A069000E2874A069000C6874208B3F
:1047D000000AA874207EE874BDE8FC871A6200080D
:1047E00010B504465C212046FBF7D2FF10BD000047
:1047F0002DE9F04390B007460E4696F800C04FEA08
:104800000C6C96F801804CEA084C96F802804CEA51
:10481000082C96F803804CEA080CCDF800C096F8F6
:1048200004C04FEA0C6C96F805804CEA084C96F8E8
:1048300006804CEA082C96F807804CEA080CCDF864
:1048400004C096F808C04FEA0C6C96F809804CEA50
:10485000084C96F80A804CEA082C96F80B804CEA33
:10486000080CCDF808C096F80CC04FEA0C6C96F80E
:104870000D804CEA084C96F80E804CEA082C96F80D
:104880000F804CEA080CCDF80CC096F810C04FEA27
:104890000C6C96F811804CEA084C96F812804CEAA1
:1048A000082C96F813804CEA080CCDF810C096F846
:1048B00014C04FEA0C6C96F815804CEA084C96F838
:1048C00016804CEA082C96F817804CEA080CCDF8B4
:1048D00014C096F818C04FEA0C6C96F819804CEA90
:1048E000084C96F81A804CEA082C96F81B804CEA83
:1048F000080CCDF818C096F81CC04FEA0C6C96F85E
:104900001D804CEA084C96F81E804CEA082C96F85C
:104910001F804CEA080CCDF81CC096F820C04FEA66
:104920000C6C96F821804CEA084C96F822804CEAF0
:10493000082C96F823804CEA080CCDF820C096F895
:1049400024C04FEA0C6C96F825804CEA084C96F887
:1049500026804CEA082C96F827804CEA080CCDF803
:1049600024C096F828C04FEA0C6C96F829804CEACF
:10497000084C96F82A804CEA082C96F82B804CEAD2
:10498000080CCDF828C096F82CC04FEA0C6C96F8AD
:104990002D804CEA084C96F82E804CEA082C96F8AC
:1049A0002F804CEA080CCDF82CC096F830C04FEAA6
:1049B0000C6C96F831804CEA084C96F832804CEA40
:1049C000082C96F833804CEA080CCDF830C096F8E5
:1049D00034C04FEA0C6C96F835804CEA084C96F8D7
:1049E00036804CEA082C96F837804CEA080CCDF853
:1049F00034C096F838C04FEA0C6C96F839804CEA0F
:104A0000084C96F83A804CEA082C96F83B804CEA21
:104A1000080CCDF838C096F83CC04FEA0C6C96F8FC
:104A20003D804CEA084C96F83E804CEA082C96F8FB
:104A30003F804CEA080CCDF83CC0B868F9683A6988
:104A40007B69BC694FEA401C4CEAD06882EA030CDF
:104A50000CEA010C8CEA030CC444DFF8F88FC44460
:104A6000DDF80080C44464444FEA817C4CEA910143
:104A70004FEA441C4CEAD46881EA020C0CEA000CB0
:104A80008CEA020CC444DFF8CC8FC444DDF8048007
:104A9000C44463444FEA807C4CEA90004FEA431CD4
:104AA0004CEAD36880EA010C0CEA040C8CEA010C95
:104AB000C444DFF8A08FC444DDF80880C4446244D5
:104AC0004FEA847C4CEA94044FEA421C4CEAD268D8
:104AD00084EA000C0CEA030C8CEA000CC444DFF8F6
:104AE000748FC444DDF80C80C44461444FEA837C75
:104AF0004CEA93034FEA411C4CEAD16883EA040C68
:104B00000CEA020C8CEA040CC444DFF8488FC4445D
:104B1000DDF81080C44460444FEA827C4CEA920283
:104B20004FEA401C4CEAD06882EA030C0CEA010C04
:104B30008CEA030CC444DFF81C8FC444DDF81480F5
:104B4000C44464444FEA817C4CEA91014FEA441C1E
:104B50004CEAD46881EA020C0CEA000C8CEA020CE4
:104B6000C444DFF8F08EC444DDF81880C4446344C4
:104B70004FEA807C4CEA90004FEA431C4CEAD36831
:104B800080EA010C0CEA040C8CEA010CC444DFF846
:104B9000C48EC444DDF81C80C44462444FEA847C63
:104BA0004CEA94044FEA421C4CEAD26884EA000CB6
:104BB0000CEA030C8CEA000CC444DFF8988EC44461
:104BC000DDF82080C44461444FEA837C4CEA9303BF
:104BD0004FEA411C4CEAD16883EA040C0CEA020C4F
:104BE0008CEA040CC444DFF86C8EC444DDF82480E5
:104BF000C44460444FEA827C4CEA92024FEA401C73
:104C00004CEAD06882EA030C0CEA010C8CEA030C33
:104C1000C444DFF8408EC444DDF82880C4446444B2
:104C20004FEA817C4CEA91014FEA441C4CEAD4687B
:104C300081EA020C0CEA000C8CEA020CC444DFF896
:104C4000148EC444DDF82C80C44463444FEA807C55
:104C50004CEA90004FEA431C4CEAD36880EA010C0E
:104C60000CEA040C8CEA010CC444DFF8E88DC4445F
:104C7000DDF83080C44462444FEA847C4CEA9404FA
:104C80004FEA421C4CEAD26884EA000C0CEA030C9E
:104C90008CEA000CC444DFF8BC8DC444DDF83480D9
:104CA000C44461444FEA837C4CEA93034FEA411CBD
:104CB0004CEAD16883EA040C0CEA020C8CEA040C7E
:104CC000C444DFF8908DC444DDF83880C4446044A7
:104CD0004FEA827C4CEA92024FEA401C4CEAD068D0
:104CE00082EA030C0CEA010C8CEA030CC444DFF8E2
:104CF000648DC444DDF83C80C44464444FEA817C44
:104D00004CEA9101DDF834C0DDF820808CEA080C13
:104D1000DDF808808CEA080CDDF800808CEA0805D4
:104D20004FEA450C4CEAD5784FEA441C4CEAD4696A
:104D300081EA020C0CEA000C8CEA020CCC44DFF88D
:104D4000149DCC44C4446344CDF800804FEA807C79
:104D50004CEA9000DDF838C0DDF824808CEA080CBD
:104D6000DDF80C808CEA080CDDF804808CEA08057C
:104D70004FEA450C4CEAD5784FEA431C4CEAD3691C
:104D800080EA010C0CEA040C8CEA010CCC44DFF83C
:104D9000C49CCC44C4446244CDF804804FEA847C73
:104DA0004CEA9404DDF83CC0DDF828808CEA080C5D
:104DB000DDF810808CEA080CDDF808808CEA080524
:104DC0004FEA450C4CEAD5784FEA421C4CEAD269CE
:104DD00084EA000C0CEA030C8CEA000CCC44DFF8EB
:104DE000749CCC44C4446144CDF808804FEA837C71
:104DF0004CEA9303DDF800C0DDF82C808CEA080C47
:104E0000DDF814808CEA080CDDF80C808CEA0805CB
:104E10004FEA450C4CEAD5784FEA411C4CEAD1697F
:104E200083EA040C0CEA020C8CEA040CCC44DFF894
:104E3000249CCC44C4446044CDF80C804FEA827C6E
:104E40004CEA9202DDF804C0DDF830808CEA080CF0
:104E5000DDF818808CEA080CDDF810808CEA080573
:104E60004FEA450C4CEAD5784FEA401C4CEAD06931
:104E700081EA020C8CEA030CCC44DFF8DC9BCC44C6
:104E8000C4446444CDF810804FEA817C4CEA91011F
:104E9000DDF808C0DDF834808CEA080CDDF81C80F1
:104EA0008CEA080CDDF814808CEA08054FEA450C02
:104EB0004CEAD5784FEA441C4CEAD46980EA010CEC
:104EC0008CEA020CCC44DFF8909BCC44C44463448D
:104ED000CDF814804FEA807C4CEA9000DDF80CC0DD
:104EE000DDF838808CEA080CDDF820808CEA080CAC
:104EF000DDF818808CEA08054FEA450C4CEAD578B5
:104F00004FEA431C4CEAD36984EA000C8CEA010C9A
:104F1000CC44DFF8449BCC44C4446244CDF81880B0
:104F20004FEA847C4CEA9404DDF810C0DDF83C8044
:104F30008CEA080CDDF824808CEA080CDDF81C8073
:104F40008CEA08054FEA450C4CEAD5784FEA421C3A
:104F50004CEAD26983EA040C8CEA000CCC44DFF8FA
:104F6000F89ACC44C4446144CDF81C804FEA837C59
:104F70004CEA9303DDF814C0DDF800808CEA080CDD
:104F8000DDF828808CEA080CDDF820808CEA080522
:104F90004FEA450C4CEAD5784FEA411C4CEAD169FE
:104FA00082EA030C8CEA040CCC44DFF8AC9ACC44C3
:104FB000C4446044CDF820804FEA827C4CEA9202DF
:104FC000DDF818C0DDF804808CEA080CDDF82C80D0
:104FD0008CEA080CDDF824808CEA08054FEA450CC1
:104FE0004CEAD5784FEA401C4CEAD06981EA020CC1
:104FF0008CEA030CCC44DFF8609ACC44C44464448B
:10500000CDF824804FEA817C4CEA9101DDF81CC088
:10501000DDF808808CEA080CDDF830808CEA080C9A
:10502000DDF828808CEA08054FEA450C4CEAD57873
:105030004FEA441C4CEAD46980EA010C8CEA020C69
:10504000CC44DFF8149ACC44C4446344CDF828809F
:105050004FEA807C4CEA9000DDF820C0DDF80C803F
:105060008CEA080CDDF834808CEA080CDDF82C8022
:105070008CEA08054FEA450C4CEAD5784FEA431C08
:105080004CEAD36984EA000C8CEA010CCC44DFF8CA
:10509000C899CC44C4446244CDF82C804FEA847C47
:1050A0004CEA9404DDF824C0DDF810808CEA080C8A
:1050B000DDF838808CEA080CDDF830808CEA0805D1
:1050C0004FEA450C4CEAD5784FEA421C4CEAD269CB
:1050D00083EA040C8CEA000CCC44DFF87C99CC44C5
:1050E000C4446144CDF830804FEA837C4CEA93039A
:1050F000DDF828C0DDF814808CEA080CDDF83C806F
:105100008CEA080CDDF834808CEA08054FEA450C7F
:105110004CEAD5784FEA411C4CEAD16982EA030C8B
:105120008CEA040CCC44DFF83099CC44C44460448D
:10513000CDF834804FEA827C4CEA9202DDF82CC034
:10514000DDF818808CEA080CDDF800808CEA080C89
:10515000DDF838808CEA08054FEA450C4CEAD57832
:105160004FEA401C4CEAD06981EA020C8CEA030C3D
:10517000CC44DFF8E498CC44C4446444CDF838808F
:105180004FEA817C4CEA9101DDF830C0DDF81C80EB
:105190008CEA080CDDF804808CEA080CDDF83C8011
:1051A0008CEA08054FEA450C4CEAD5784FEA441CD6
:1051B0004CEAD46980EA010C8CEA020CCC44DFF89A
:1051C0009898CC44C4446344CDF83C804FEA807C3A
:1051D0004CEA9000DDF834C0DDF820808CEA080C41
:1051E000DDF808808CEA080CDDF800808CEA080500
:1051F0004FEA450C4CEAD5784FEA431C4CEAD36998
:1052000084EA000C8CEA010CCC44DFF84C98CC44C6
:10521000C4446244CDF800804FEA847C4CEA940494
:10522000DDF838C0DDF824808CEA080CDDF80C804D
:105230008CEA080CDDF804808CEA08054FEA450C7E
:105240004CEAD5784FEA421C4CEAD26983EA040C56
:105250008CEA000CCC44DFF80098CC44C444614490
:10526000CDF804804FEA837C4CEA9303DDF83CC020
:10527000DDF828808CEA080CDDF810808CEA080C38
:10528000DDF808808CEA08054FEA450C4CEAD57831
:105290004FEA411C4CEAD16982EA030C8CEA040C07
:1052A000CC44DFF8B497CC44C4446044CDF80880C3
:1052B0004FEA827C4CEA9202DDF800C0DDF82C80D7
:1052C0008CEA080CDDF814808CEA080CDDF80C8000
:1052D0008CEA08054FEA450C4CEAD5784FEA401CA9
:1052E0004CEAD06981EA020C8CEA030CCC44DFF86A
:1052F0006897CC44C4446444CDF80C804FEA817C68
:105300004CEA9101DDF804C0DDF830808CEA080C2D
:10531000DDF818808CEA080CDDF810808CEA0805AE
:105320004FEA450C4CEAD5784FEA441C4CEAD46964
:1053300080EA010C8CEA020CCC44DFF81C97CC44C8
:10534000C4446344CDF810804FEA807C4CEA90005E
:10535000DDF808C0DDF834808CEA080CDDF81C802C
:105360008CEA080CDDF814808CEA08054FEA450C3D
:105370004CEAD5784FEA431C4CEAD36984EA000C26
:105380008CEA010CCC44DFF8D096CC44C44462448F
:10539000CDF814804FEA847C4CEA9404DDF80CC00C
:1053A000DDF838808CEA080CDDF820808CEA080CE7
:1053B000DDF818808CEA08054FEA450C4CEAD578F0
:1053C0004FEA421C4CEAD26983EA040C8CEA000CD6
:1053D000CC44DFF88496CC44C4446144CDF81880B2
:1053E0004FEA837C4CEA9303DDF810C0DDF83C8083
:1053F0008CEA080CDDF824808CEA080CDDF81C80AF
:105400008CEA08054FEA450C4CEAD5784FEA411C76
:105410004CEAD16982EA030C8CEA040CCC44DFF834
:105420003896CC44C4446044CDF81C804FEA827C5A
:105430004CEA92024FEA401C4CEAD06901EA020CA5
:1054400041EA020808EA03084CEA080CCC44DFF8F9
:105450000C86E044DDF814C0DDF800908CEA090CFD
:10546000DDF828908CEA090CDDF820908CEA09051B
:105470004FEA450C4CEAD57CCDF820C0C4446444C6
:105480004FEA817C4CEA91014FEA441C4CEAD46912
:1054900000EA010C40EA010808EA02084CEA080C9C
:1054A000CC44DFF8B885E044DDF818C0DDF804909E
:1054B0008CEA090CDDF82C908CEA090CDDF82490BC
:1054C0008CEA09054FEA450C4CEAD57CCDF824C09E
:1054D000C44463444FEA807C4CEA90004FEA431C8A
:1054E0004CEAD36904EA000C44EA000808EA01081F
:1054F0004CEA080CCC44DFF86485E044DDF81CC0BD
:10550000DDF808908CEA090CDDF830908CEA090C83
:10551000DDF828908CEA09054FEA450C4CEAD57C69
:10552000CDF828C0C44462444FEA847C4CEA940419
:105530004FEA421C4CEAD26903EA040C43EA04082D
:1055400008EA00084CEA080CCC44DFF81085E04477
:10555000DDF820C0DDF80C908CEA090CDDF8349001
:105560008CEA090CDDF82C908CEA09054FEA450C11
:105570004CEAD57CCDF82CC0C44461444FEA837C0E
:105580004CEA93034FEA411C4CEAD16902EA030C4E
:1055900042EA030808EA04084CEA080CCC44DFF8A5
:1055A000BC84E044DDF824C0DDF810908CEA090CDE
:1055B000DDF838908CEA090CDDF830908CEA0905AA
:1055C0004FEA450C4CEAD57CCDF830C0C444604469
:1055D0004FEA827C4CEA92024FEA401C4CEAD069C6
:1055E00001EA020C41EA020808EA03084CEA080C46
:1055F000CC44DFF86884E044DDF828C0DDF814907E
:105600008CEA090CDDF83C908CEA090CDDF834904A
:105610008CEA09054FEA450C4CEAD57CCDF834C03C
:10562000C44464444FEA817C4CEA91014FEA441C33
:105630004CEAD46900EA010C40EA010808EA0208D1
:105640004CEA080CCC44DFF81484E044DDF82CC0AC
:10565000DDF818908CEA090CDDF800908CEA090C52
:10566000DDF838908CEA09054FEA450C4CEAD57C08
:10567000CDF838C0C44463444FEA807C4CEA9000C3
:105680004FEA431C4CEAD36904EA000C44EA0008E0
:1056900008EA01084CEA080CCC44DFF8C083E04477
:1056A000DDF830C0DDF81C908CEA090CDDF80490C0
:1056B0008CEA090CDDF83C908CEA09054FEA450CB0
:1056C0004CEAD57CCDF83CC0C44462444FEA847CAB
:1056D0004CEA94044FEA421C4CEAD26903EA040CF7
:1056E00043EA040808EA00084CEA080CCC44DFF856
:1056F0006C83E044DDF834C0DDF820908CEA090CBE
:10570000DDF808908CEA090CDDF800908CEA0905B8
:105710004FEA450C4CEAD57CCDF800C0C444614446
:105720004FEA837C4CEA93034FEA411C4CEAD1696F
:1057300002EA030C42EA030808EA04084CEA080CEF
:10574000CC44DFF81883E044DDF838C0DDF824905D
:105750008CEA090CDDF80C908CEA090CDDF8049059
:105760008CEA09054FEA450C4CEAD57CCDF804C01B
:10577000C44460444FEA827C4CEA92024FEA401CE7
:105780004CEAD06901EA020C41EA020808EA03087F
:105790004CEA080CCC44DFF8C482E044DDF83CC09D
:1057A000DDF828908CEA090CDDF810908CEA090CE1
:1057B000DDF808908CEA09054FEA450C4CEAD57CE7
:1057C000CDF808C0C44464444FEA817C4CEA91019E
:1057D0004FEA441C4CEAD46900EA010C40EA010893
:1057E00008EA02084CEA080CCC44DFF87082E04476
:1057F000DDF800C0DDF82C908CEA090CDDF814907F
:105800008CEA090CDDF80C908CEA09054FEA450C8E
:105810004CEAD57CCDF80CC0C44463444FEA807C8C
:105820004CEA90004FEA431C4CEAD36904EA000CAE
:1058300044EA000808EA01084CEA080CCC44DFF806
:105840001C82E044DDF804C0DDF830908CEA090CDD
:10585000DDF818908CEA090CDDF810908CEA090547
:105860004FEA450C4CEAD57CCDF810C0C4446244E4
:105870004FEA847C4CEA94044FEA421C4CEAD26919
:1058800003EA040C43EA040808EA00084CEA080C9E
:10589000CC44DFF8C881E044DDF808C0DDF834907E
:1058A0008CEA090CDDF81C908CEA090CDDF81490E8
:1058B0008CEA09054FEA450C4CEAD57CCDF814C0BA
:1058C000C44461444FEA837C4CEA93034FEA411C91
:1058D0004CEAD16902EA030C42EA030808EA040828
:1058E0004CEA080CCC44DFF87481E044DDF80CC0CD
:1058F000DDF838908CEA090CDDF820908CEA090C70
:10590000DDF818908CEA09054FEA450C4CEAD57C85
:10591000CDF818C0C44460444FEA827C4CEA92023D
:105920004FEA401C4CEAD06901EA020C41EA020845
:1059300008EA03084CEA080CCC44DFF82081E04474
:10594000DDF810C0DDF83C908CEA090CDDF82490FD
:105950008CEA090CDDF81C908CEA09054FEA450C2D
:105960004CEAD57CCDF81CC0C44464444FEA817C29
:105970004CEA91014FEA441C4CEAD46900EA010C5C
:1059800040EA010808EA02084CEA080CCC44DFF8B7
:10599000CC80E044DDF814C0DDF800908CEA090CFE
:1059A000DDF828908CEA090CDDF820908CEA0905D6
:1059B0004FEA450C4CEAD57CCDF820C0C444634482
:1059C0004FEA807C4CEA90004FEA431C4CEAD369D2
:1059D00004EA000C44EA000808EA01084CEA080C52
:1059E000CC44DFF87880E044DDF818C0DDF804909E
:1059F0008CEA090CDDF82C908CEA090CDDF8249077
:105A00008CEA09054FEA450C4CEAD57CCDF824C058
:105A1000C44462444FEA847C4CEA94044FEA421C3A
:105A20004CEAD26903EA040C43EA040808EA0008D5
:105A30004CEA080CCC44DFF82480E044DDF81CC0BC
:105A4000DDF808908CEA090CDDF830908CEA090C3E
:105A500006E000009979825AA1EBD96EDCBC1B8F5D
:105A6000DDF828908CEA09054FEA450C4CEAD57C14
:105A7000CDF828C0C44461444FEA837C4CEA9303C8
:105A80004FEA411C4CEAD16902EA030C42EA0308DE
:105A900008EA04084CEA080CCC44DFF86886E044C5
:105AA000DDF820C0DDF80C908CEA090CDDF83490AC
:105AB0008CEA090CDDF82C908CEA09054FEA450CBC
:105AC0004CEAD57CCDF82CC0C44460444FEA827CBB
:105AD0004CEA9202DDF824C0DDF810808CEA080C54
